{
  "contractName": "Students",
  "abi": [
    {
      "inputs": [
        {
          "internalType": "uint256",
          "name": "",
          "type": "uint256"
        }
      ],
      "name": "EtudiantsArray",
      "outputs": [
        {
          "internalType": "string",
          "name": "name",
          "type": "string"
        },
        {
          "internalType": "uint256",
          "name": "note",
          "type": "uint256"
        }
      ],
      "stateMutability": "view",
      "type": "function",
      "constant": true
    },
    {
      "inputs": [
        {
          "internalType": "address",
          "name": "",
          "type": "address"
        }
      ],
      "name": "EtudiantsMap",
      "outputs": [
        {
          "internalType": "string",
          "name": "name",
          "type": "string"
        },
        {
          "internalType": "uint256",
          "name": "note",
          "type": "uint256"
        }
      ],
      "stateMutability": "view",
      "type": "function",
      "constant": true
    },
    {
      "inputs": [
        {
          "internalType": "string",
          "name": "_name",
          "type": "string"
        }
      ],
      "name": "getArray",
      "outputs": [
        {
          "components": [
            {
              "internalType": "string",
              "name": "name",
              "type": "string"
            },
            {
              "internalType": "uint256",
              "name": "note",
              "type": "uint256"
            }
          ],
          "internalType": "struct Students.Etudiant",
          "name": "_etudiant",
          "type": "tuple"
        }
      ],
      "stateMutability": "view",
      "type": "function",
      "constant": true
    },
    {
      "inputs": [
        {
          "internalType": "address",
          "name": "_addr",
          "type": "address"
        }
      ],
      "name": "getMap",
      "outputs": [
        {
          "components": [
            {
              "internalType": "string",
              "name": "name",
              "type": "string"
            },
            {
              "internalType": "uint256",
              "name": "note",
              "type": "uint256"
            }
          ],
          "internalType": "struct Students.Etudiant",
          "name": "",
          "type": "tuple"
        }
      ],
      "stateMutability": "view",
      "type": "function",
      "constant": true
    },
    {
      "inputs": [
        {
          "internalType": "address",
          "name": "_addr",
          "type": "address"
        },
        {
          "internalType": "string",
          "name": "_name",
          "type": "string"
        },
        {
          "internalType": "uint256",
          "name": "_note",
          "type": "uint256"
        }
      ],
      "name": "set",
      "outputs": [],
      "stateMutability": "nonpayable",
      "type": "function"
    },
    {
      "inputs": [
        {
          "internalType": "address",
          "name": "_addr",
          "type": "address"
        }
      ],
      "name": "deleter",
      "outputs": [],
      "stateMutability": "nonpayable",
      "type": "function"
    }
  ],
  "bytecode": "0x608060405234801561001057600080fd5b50610f6e806100206000396000f3fe608060405234801561001057600080fd5b50600436106100625760003560e01c806309187bc7146100675780631947bd2f146100985780636c38a514146100c85780639603aaa5146100e4578063c03e8f6414610115578063e9a8bae614610131575b600080fd5b610081600480360381019061007c91906109e9565b610161565b60405161008f929190610ac8565b60405180910390f35b6100b260048036038101906100ad91906109e9565b61020d565b6040516100bf9190610b8e565b60405180910390f35b6100e260048036038101906100dd91906109e9565b610302565b005b6100fe60048036038101906100f99190610bdc565b610479565b60405161010c929190610ac8565b60405180910390f35b61012f600480360381019061012a9190610c6e565b610535565b005b61014b60048036038101906101469190610ce2565b610681565b6040516101589190610b8e565b60405180910390f35b600160205280600052604060002060009150905080600001805461018490610d5e565b80601f01602080910402602001604051908101604052809291908181526020018280546101b090610d5e565b80156101fd5780601f106101d2576101008083540402835291602001916101fd565b820191906000526020600020905b8154815290600101906020018083116101e057829003601f168201915b5050505050908060010154905082565b6102156107fe565b600160008373ffffffffffffffffffffffffffffffffffffffff1673ffffffffffffffffffffffffffffffffffffffff16815260200190815260200160002060405180604001604052908160008201805461026f90610d5e565b80601f016020809104026020016040519081016040528092919081815260200182805461029b90610d5e565b80156102e85780601f106102bd576101008083540402835291602001916102e8565b820191906000526020600020905b8154815290600101906020018083116102cb57829003601f168201915b505050505081526020016001820154815250509050919050565b60005b60008054905081101561041b57600160008373ffffffffffffffffffffffffffffffffffffffff1673ffffffffffffffffffffffffffffffffffffffff1681526020019081526020016000206000016040516020016103649190610e2e565b604051602081830303815290604052805190602001206000828154811061038e5761038d610e45565b5b90600052602060002090600202016000016040516020016103af9190610e2e565b604051602081830303815290604052805190602001200361040857600081815481106103de576103dd610e45565b5b9060005260206000209060020201600080820160006103fd9190610818565b600182016000905550505b808061041390610ea3565b915050610305565b50600160008273ffffffffffffffffffffffffffffffffffffffff1673ffffffffffffffffffffffffffffffffffffffff1681526020019081526020016000206000808201600061046c9190610818565b6001820160009055505050565b6000818154811061048957600080fd5b90600052602060002090600202016000915090508060000180546104ac90610d5e565b80601f01602080910402602001604051908101604052809291908181526020018280546104d890610d5e565b80156105255780601f106104fa57610100808354040283529160200191610525565b820191906000526020600020905b81548152906001019060200180831161050857829003601f168201915b5050505050908060010154905082565b8282600160008773ffffffffffffffffffffffffffffffffffffffff1673ffffffffffffffffffffffffffffffffffffffff1681526020019081526020016000206000019190610586929190610858565b5080600160008673ffffffffffffffffffffffffffffffffffffffff1673ffffffffffffffffffffffffffffffffffffffff168152602001908152602001600020600101819055506000604051806040016040528085858080601f016020809104026020016040519081016040528093929190818152602001838380828437600081840152601f19601f820116905080830192505050505050508152602001838152509080600181540180825580915050600190039060005260206000209060020201600090919091909150600082015181600001908051906020019061066e9291906108de565b5060208201518160010155505050505050565b6106896107fe565b60005b6000805490508110156107f657600081815481106106ad576106ac610e45565b5b90600052602060002090600202016000016040516020016106ce9190610e2e565b6040516020818303038152906040528051906020012084846040516020016106f7929190610f1f565b60405160208183030381529060405280519060200120036107e3576000818154811061072657610725610e45565b5b906000526020600020906002020160405180604001604052908160008201805461074f90610d5e565b80601f016020809104026020016040519081016040528092919081815260200182805461077b90610d5e565b80156107c85780601f1061079d576101008083540402835291602001916107c8565b820191906000526020600020905b8154815290600101906020018083116107ab57829003601f168201915b505050505081526020016001820154815250509150506107f8565b80806107ee90610ea3565b91505061068c565b505b92915050565b604051806040016040528060608152602001600081525090565b50805461082490610d5e565b6000825580601f106108365750610855565b601f0160209004906000526020600020908101906108549190610964565b5b50565b82805461086490610d5e565b90600052602060002090601f01602090048101928261088657600085556108cd565b82601f1061089f57803560ff19168380011785556108cd565b828001600101855582156108cd579182015b828111156108cc5782358255916020019190600101906108b1565b5b5090506108da9190610964565b5090565b8280546108ea90610d5e565b90600052602060002090601f01602090048101928261090c5760008555610953565b82601f1061092557805160ff1916838001178555610953565b82800160010185558215610953579182015b82811115610952578251825591602001919060010190610937565b5b5090506109609190610964565b5090565b5b8082111561097d576000816000905550600101610965565b5090565b600080fd5b600080fd5b600073ffffffffffffffffffffffffffffffffffffffff82169050919050565b60006109b68261098b565b9050919050565b6109c6816109ab565b81146109d157600080fd5b50565b6000813590506109e3816109bd565b92915050565b6000602082840312156109ff576109fe610981565b5b6000610a0d848285016109d4565b91505092915050565b600081519050919050565b600082825260208201905092915050565b60005b83811015610a50578082015181840152602081019050610a35565b83811115610a5f576000848401525b50505050565b6000601f19601f8301169050919050565b6000610a8182610a16565b610a8b8185610a21565b9350610a9b818560208601610a32565b610aa481610a65565b840191505092915050565b6000819050919050565b610ac281610aaf565b82525050565b60006040820190508181036000830152610ae28185610a76565b9050610af16020830184610ab9565b9392505050565b600082825260208201905092915050565b6000610b1482610a16565b610b1e8185610af8565b9350610b2e818560208601610a32565b610b3781610a65565b840191505092915050565b610b4b81610aaf565b82525050565b60006040830160008301518482036000860152610b6e8282610b09565b9150506020830151610b836020860182610b42565b508091505092915050565b60006020820190508181036000830152610ba88184610b51565b905092915050565b610bb981610aaf565b8114610bc457600080fd5b50565b600081359050610bd681610bb0565b92915050565b600060208284031215610bf257610bf1610981565b5b6000610c0084828501610bc7565b91505092915050565b600080fd5b600080fd5b600080fd5b60008083601f840112610c2e57610c2d610c09565b5b8235905067ffffffffffffffff811115610c4b57610c4a610c0e565b5b602083019150836001820283011115610c6757610c66610c13565b5b9250929050565b60008060008060608587031215610c8857610c87610981565b5b6000610c96878288016109d4565b945050602085013567ffffffffffffffff811115610cb757610cb6610986565b5b610cc387828801610c18565b93509350506040610cd687828801610bc7565b91505092959194509250565b60008060208385031215610cf957610cf8610981565b5b600083013567ffffffffffffffff811115610d1757610d16610986565b5b610d2385828601610c18565b92509250509250929050565b7f4e487b7100000000000000000000000000000000000000000000000000000000600052602260045260246000fd5b60006002820490506001821680610d7657607f821691505b602082108103610d8957610d88610d2f565b5b50919050565b600081905092915050565b60008190508160005260206000209050919050565b60008154610dbc81610d5e565b610dc68186610d8f565b94506001821660008114610de15760018114610df257610e25565b60ff19831686528186019350610e25565b610dfb85610d9a565b60005b83811015610e1d57815481890152600182019150602081019050610dfe565b838801955050505b50505092915050565b6000610e3a8284610daf565b915081905092915050565b7f4e487b7100000000000000000000000000000000000000000000000000000000600052603260045260246000fd5b7f4e487b7100000000000000000000000000000000000000000000000000000000600052601160045260246000fd5b6000610eae82610aaf565b91507fffffffffffffffffffffffffffffffffffffffffffffffffffffffffffffffff8203610ee057610edf610e74565b5b600182019050919050565b82818337600083830152505050565b6000610f068385610d8f565b9350610f13838584610eeb565b82840190509392505050565b6000610f2c828486610efa565b9150819050939250505056fea2646970667358221220dbdf95504495b0e680023d0ad297a5857985d42e26fb0700fa89b5108ed01aa464736f6c634300080d0033",
  "immutableReferences": {},
  "source": "// SPDX-License-Identifier: MIT\npragma solidity 0.8.13;\n\ncontract Students {\n\n    struct Etudiant{\n        string name;\n        uint note;\n    }\n\n    Etudiant[] public EtudiantsArray;\n    mapping(address => Etudiant) public EtudiantsMap;\n\n    function getArray(string calldata _name) public view returns(Etudiant memory _etudiant) {\n        for (uint i; i<EtudiantsArray.length; i++){\n            if (keccak256(abi.encodePacked(_name)) == keccak256(abi.encodePacked(EtudiantsArray[i].name))){\n                return EtudiantsArray[i];\n            }\n        }\n    }\n\n    function getMap(address _addr) public view returns (Etudiant memory) {\n        return EtudiantsMap[_addr];\n    }\n\n    function set(address _addr, string calldata _name, uint _note) public {\n        EtudiantsMap[_addr].name =_name;\n        EtudiantsMap[_addr].note =_note;\n        EtudiantsArray.push(Etudiant(_name,_note));\n    }\n\n    function deleter(address _addr) public {\n        for (uint i; i<EtudiantsArray.length; i++){\n            if (keccak256(abi.encodePacked(EtudiantsArray[i].name)) == keccak256(abi.encodePacked(EtudiantsMap[_addr].name))){\n                delete EtudiantsArray[i];\n            }\n        }\n        delete EtudiantsMap[_addr];\n    }\n\n}",
  "sourcePath": "/home/marielle/COURS/Alyra/Developpeur-Ethereum-Template/4. Truffle & CI-CD/exercice-etudiant/contracts/Students.sol",
  "compiler": {
    "name": "solc",
    "version": "0.8.13+commit.abaa5c0e.Emscripten.clang"
  },
  "schemaVersion": "3.4.6",
  "updatedAt": "2022-04-03T10:57:35.011Z",
  "networkType": "ethereum",
  "devdoc": {
    "kind": "dev",
    "methods": {},
    "version": 1
  },
  "userdoc": {
    "kind": "user",
    "methods": {},
    "version": 1
  }
}